:020000040000FA
:100000000C9435000C945D000C945D000C945D0024
:100010000C945D000C945D000C945D000C945D00EC
:100020000C945D000C945D000C945D000C945D00DC
:100030000C945D000C945D000C945D000C945D00CC
:100040000C9467020C945D000C9435020C940F0222
:100050000C945D000C945D000C945D000C945D00AC
:100060000C945D000C945D00B10211241FBECFEF13
:10007000D8E0DEBFCDBF11E0A0E0B1E0E0E1F7E005
:1000800002C005900D92A831B107D9F721E0A8E18F
:10009000B1E001C01D92A23EB207E1F710E0C5E356
:1000A000D0E004C02197FE010E948003C433D10731
:1000B000C9F70E9410030C9486030C940000FC0105
:1000C000538D448D252F30E0842F90E0821B930BBD
:1000D000541710F0CF96089501970895FC01918D63
:1000E000828D981761F0A28DAE0FBF2FB11D5D9666
:1000F0008C91928D9F5F9F73928F90E008958FEF08
:100100009FEF0895FC01918D828D981731F0828DBB
:10011000E80FF11D858D90E008958FEF9FEF089512
:10012000FC01918D228D892F90E0805C9F4F821B76
:1001300091098F7399270895FC01A48DA80FB92FF9
:10014000B11DA35ABF4F2C91848D90E001968F73FF
:100150009927848FA689B7892C93A089B1898C911E
:10016000837080648C93938D848D981306C002886D
:10017000F389E02D80818F7D80830895EF92FF9237
:100180000F931F93CF93DF93EC0181E0888F9B8DBA
:100190008C8D98131AC0E889F989808185FF15C074
:1001A0009FB7F894EE89FF896083E889F989808197
:1001B0008370806480839FBF81E090E0DF91CF9166
:1001C0001F910F91FF90EF900895F62E0B8D10E088
:1001D0000F5F1F4F0F731127E02E8C8D8E110CC0F7
:1001E0000FB607FCFACFE889F989808185FFF5CF42
:1001F000CE010E949C00F1CFEB8DEC0FFD2FF11D85
:10020000E35AFF4FF0829FB7F8940B8FEA89FB897E
:1002100080818062CFCFCF93DF93EC01888D8823DC
:10022000B9F0AA89BB89E889F9898C9185FD03C059
:10023000808186FD0DC00FB607FCF7CF8C9185FF3E
:10024000F2CF808185FFEDCFCE010E949C00E9CFE7
:10025000DF91CF91089581E291E00E94900021E02A
:10026000892B09F420E0822F089580E090E0892B0B
:1002700029F00E942B0181110C9400000895AF9287
:10028000BF92CF92DF92EF92FF920F931F93CF9383
:10029000DF936C017B018B01040F151FEB015E01E5
:1002A000AE18BF08C017D10759F06991D601ED917A
:1002B000FC910190F081E02DC6010995892B79F719
:1002C000C501DF91CF911F910F91FF90EF90DF90CB
:1002D000CF90BF90AF9008958F929F92AF92BF92B0
:1002E000EF92FF920F931F93CF93DF93CDB7DEB7BB
:1002F000A1970FB6F894DEBF0FBECDBF7C01FA0107
:10030000CB0119A2223008F42AE08E010F5D1F4FA5
:10031000822E912CB12CA12CBF01A50194010E9429
:100320005E03F901CA016A3074F5605DD8016E930D
:100330008D01232B242B252B79F790E080E010975B
:1003400089F0FD0101900020E9F73197AF014A1BC8
:100350005B0BD701ED91FC910280F381E02DB80198
:10036000C7010995A1960FB6F894DEBF0FBECDBFA9
:10037000DF91CF911F910F91FF90EF90BF90AF90C1
:100380009F908F900895695CD1CF8F929F92AF928A
:10039000BF92CF92DF92EF92FF920F931F93CF9372
:1003A000DF937C01EB016C0182E0C80ED11C470198
:1003B000E5E08E0E911C10E000E0F60141916F0126
:1003C00050E070E060E02AE0CE010E946C015C0128
:1003D000E881F9810190F081E02D6EE2CE0109956E
:1003E0008A0D9B1D080F191FC814D90431F7F70196
:1003F000458150E070E060E02AE0CE010E946C018F
:10040000800F911FDF91CF911F910F91FF90EF907F
:10041000DF90CF90BF90AF909F908F9008951F92E4
:100420000F920FB60F9211242F933F934F935F9328
:100430006F937F938F939F93AF93BF93EF93FF93AC
:1004400081E291E00E949C00FF91EF91BF91AF91FA
:100450009F918F917F916F915F914F913F912F91DC
:100460000F900FBE0F901F9018951F920F920FB60E
:100470000F9211242F938F939F93EF93FF93E0910B
:100480003101F09132018081E0913701F091380122
:1004900082FD1BC0908180913A018F5F8F73209104
:1004A0003B01821741F0E0913A01F0E0EF5DFE4F31
:1004B000958F80933A01FF91EF919F918F912F91AA
:1004C0000F900FBE0F901F9018958081F4CF1F9250
:1004D0000F920FB60F9211242F933F938F939F93F8
:1004E000AF93BF9380911D0190911E01A0911F01B8
:1004F000B091200130911C0123E0230F2D3758F5D6
:100500000196A11DB11D20931C0180931D019093A4
:100510001E01A0931F01B0932001809118019091BA
:100520001901A0911A01B0911B010196A11DB11DE5
:100530008093180190931901A0931A01B0931B01A5
:10054000BF91AF919F918F913F912F910F900FBECF
:100550000F901F90189526E8230F0296A11DB11D3C
:10056000D2CFE1E2F1E01382128288EE93E0A0E0C4
:10057000B0E084839583A683B78384E091E0918380
:10058000808385EC90E09587848784EC90E0978762
:10059000868780EC90E0918B808B81EC90E0938B50
:1005A000828B82EC90E0958B848B86EC90E0978B2D
:1005B000868B118E128E138E148EEEEBF1E086E197
:1005C00091E0918380831282138214821582E4EC7D
:1005D000F1E0918380831282138214821582EAEC07
:1005E000F1E0918380831282138214821582E0ED00
:1005F000F1E0918380831282138214821582E6EDEA
:10060000F1E0918380831282138214821582ECEDD3
:10061000F1E09183808312821382148215820895FF
:10062000789484B5826084BD84B5816084BD85B5CD
:10063000826085BD85B5816085BD80916E008160D9
:1006400080936E001092810080918100826080937F
:100650008100809181008160809381008091800081
:100660008160809380008091B10084608093B100AC
:100670008091B00081608093B00080917A008460A6
:1006800080937A0080917A00826080937A008091D2
:100690007A00816080937A0080917A0080688093EC
:1006A0007A001092C100C0E0D0E02097F1F30E94E0
:1006B0002B018823D1F30E940000F7CFA1E21A2E6C
:1006C000AA1BBB1BFD010DC0AA1FBB1FEE1FFF1FF6
:1006D000A217B307E407F50720F0A21BB30BE40B46
:1006E000F50B661F771F881F991F1A9469F760958D
:1006F0007095809590959B01AC01BD01CF01089547
:10070000EE0FFF1F0590F491E02D0994F894FFCFB0
:1007100000000000BE003F015F000B0190006E0072
:08072000820000000000C50189
:107E0000112484B714BE81FFF0D085E080938100F7
:107E100082E08093C00088E18093C10086E0809377
:107E2000C20080E18093C4008EE0C9D0259A86E02C
:107E300020E33CEF91E0309385002093840096BBD3
:107E4000B09BFECF1D9AA8958150A9F7CC24DD24C4
:107E500088248394B5E0AB2EA1E19A2EF3E0BF2EE7
:107E6000A2D0813461F49FD0082FAFD0023811F036
:107E7000013811F484E001C083E08DD089C08234E0
:107E800011F484E103C0853419F485E0A6D080C0E4
:107E9000853579F488D0E82EFF2485D0082F10E0AE
:107EA000102F00270E291F29000F111F8ED06801E7
:107EB0006FC0863521F484E090D080E0DECF843638
:107EC00009F040C070D06FD0082F6DD080E0C81688
:107ED00080E7D80618F4F601B7BEE895C0E0D1E017
:107EE00062D089930C17E1F7F0E0CF16F0E7DF06D8
:107EF00018F0F601B7BEE89568D007B600FCFDCFD4
:107F0000A601A0E0B1E02C9130E011968C91119780
:107F100090E0982F8827822B932B1296FA010C0160
:107F200087BEE89511244E5F5F4FF1E0A038BF0790
:107F300051F7F601A7BEE89507B600FCFDCF97BE46
:107F4000E89526C08437B1F42ED02DD0F82E2BD052
:107F50003CD0F601EF2C8F010F5F1F4F84911BD097
:107F6000EA94F801C1F70894C11CD11CFA94CF0C13
:107F7000D11C0EC0853739F428D08EE10CD085E9AC
:107F80000AD08FE07ACF813511F488E018D01DD067
:107F900080E101D065CF982F8091C00085FFFCCF94
:107FA0009093C60008958091C00087FFFCCF809118
:107FB000C00084FD01C0A8958091C6000895E0E648
:107FC000F0E098E1908380830895EDDF803219F02E
:107FD00088E0F5DFFFCF84E1DECF1F93182FE3DFCA
:107FE0001150E9F7F2DF1F91089580E0E8DFEE27F6
:047FF000FF270994CA
:027FFE00040479
:00000001FF
